{
  "contractName": "ProofOfStake",
  "abi": [
    {
      "inputs": [],
      "stateMutability": "nonpayable",
      "type": "constructor"
    },
    {
      "inputs": [
        {
          "internalType": "uint256",
          "name": "",
          "type": "uint256"
        }
      ],
      "name": "blocks",
      "outputs": [
        {
          "internalType": "uint256",
          "name": "id",
          "type": "uint256"
        },
        {
          "internalType": "uint256",
          "name": "timestamp",
          "type": "uint256"
        },
        {
          "internalType": "bytes32",
          "name": "previousHash",
          "type": "bytes32"
        },
        {
          "internalType": "bytes32",
          "name": "hash",
          "type": "bytes32"
        }
      ],
      "stateMutability": "view",
      "type": "function"
    },
    {
      "inputs": [],
      "name": "transactionsPerBlock",
      "outputs": [
        {
          "internalType": "uint256",
          "name": "",
          "type": "uint256"
        }
      ],
      "stateMutability": "view",
      "type": "function"
    },
    {
      "inputs": [
        {
          "internalType": "uint256",
          "name": "",
          "type": "uint256"
        }
      ],
      "name": "validators",
      "outputs": [
        {
          "internalType": "address",
          "name": "validatorAddress",
          "type": "address"
        },
        {
          "internalType": "uint256",
          "name": "stake",
          "type": "uint256"
        },
        {
          "internalType": "uint256",
          "name": "balance",
          "type": "uint256"
        }
      ],
      "stateMutability": "view",
      "type": "function"
    },
    {
      "inputs": [
        {
          "internalType": "address",
          "name": "_address",
          "type": "address"
        },
        {
          "internalType": "uint256",
          "name": "_stake",
          "type": "uint256"
        }
      ],
      "name": "addValidator",
      "outputs": [],
      "stateMutability": "nonpayable",
      "type": "function"
    },
    {
      "inputs": [
        {
          "internalType": "string",
          "name": "_data",
          "type": "string"
        }
      ],
      "name": "addTransaction",
      "outputs": [],
      "stateMutability": "nonpayable",
      "type": "function"
    },
    {
      "inputs": [
        {
          "internalType": "uint256",
          "name": "blockIndex",
          "type": "uint256"
        }
      ],
      "name": "getBlock",
      "outputs": [
        {
          "internalType": "uint256",
          "name": "",
          "type": "uint256"
        },
        {
          "internalType": "uint256",
          "name": "",
          "type": "uint256"
        },
        {
          "internalType": "bytes32",
          "name": "",
          "type": "bytes32"
        },
        {
          "internalType": "bytes32",
          "name": "",
          "type": "bytes32"
        },
        {
          "internalType": "string[]",
          "name": "",
          "type": "string[]"
        }
      ],
      "stateMutability": "view",
      "type": "function"
    },
    {
      "inputs": [],
      "name": "addBlock",
      "outputs": [],
      "stateMutability": "nonpayable",
      "type": "function"
    },
    {
      "inputs": [],
      "name": "selectValidatorIndex",
      "outputs": [
        {
          "internalType": "uint256",
          "name": "",
          "type": "uint256"
        }
      ],
      "stateMutability": "view",
      "type": "function"
    }
  ],
  "bytecode": "0x6080604052600380553480156200001557600080fd5b50620000293360646200008d60201b60201c565b6200005073ab8483f64d9c6d1ecf9b849ae677dd3315835cb260326200008d60201b60201c565b62000077734b20993bc481177ec7e8f571cecae8a9e22c02db604b6200008d60201b60201c565b620000876200014b60201b60201c565b6200058d565b600060405180606001604052808473ffffffffffffffffffffffffffffffffffffffff1681526020018381526020016000815250908060018154018082558091505060019003906000526020600020906003020160009091909190915060008201518160000160006101000a81548173ffffffffffffffffffffffffffffffffffffffff021916908373ffffffffffffffffffffffffffffffffffffffff160217905550602082015181600101556040820151816002015550505050565b60006040518060a00160405280600081526020014281526020016000801b81526020016000801b8152602001600067ffffffffffffffff81111562000195576200019462000487565b5b604051908082528060200260200182016040528015620001ca57816020015b6060815260200190600190039081620001b45790505b508152509050806000015181602001518260400151604051602001620001f393929190620004ec565b6040516020818303038152906040528051906020012081606001818152505060018190806001815401808255809150506001900390600052602060002090600502016000909190919091506000820151816000015560208201518160010155604082015181600201556060820151816003015560808201518160040190805190602001906200028492919062000302565b5050506002600001819080600181540180825580915050600190039060005260206000209060050201600090919091909150600082015181600001556020820151816001015560408201518160020155606082015181600301556080820151816004019080519060200190620002fc92919062000302565b50505050565b82805482825590600052602060002090810192821562000356579160200282015b82811115620003555782518290805190602001906200034492919062000369565b509160200191906001019062000323565b5b509050620003659190620003fa565b5090565b828054620003779062000558565b90600052602060002090601f0160209004810192826200039b5760008555620003e7565b82601f10620003b657805160ff1916838001178555620003e7565b82800160010185558215620003e7579182015b82811115620003e6578251825591602001919060010190620003c9565b5b509050620003f6919062000422565b5090565b5b808211156200041e576000818162000414919062000441565b50600101620003fb565b5090565b5b808211156200043d57600081600090555060010162000423565b5090565b5080546200044f9062000558565b6000825580601f1062000463575062000484565b601f01602090049060005260206000209081019062000483919062000422565b5b50565b7f4e487b7100000000000000000000000000000000000000000000000000000000600052604160045260246000fd5b6000819050919050565b620004cb81620004b6565b82525050565b6000819050919050565b620004e681620004d1565b82525050565b6000606082019050620005036000830186620004c0565b620005126020830185620004c0565b620005216040830184620004db565b949350505050565b7f4e487b7100000000000000000000000000000000000000000000000000000000600052602260045260246000fd5b600060028204905060018216806200057157607f821691505b60208210810362000587576200058662000529565b5b50919050565b6119f5806200059d6000396000f3fe608060405234801561001057600080fd5b50600436106100885760003560e01c8063c5533dce1161005b578063c5533dce14610119578063f0045e8b14610137578063f25b3f9914610155578063fc6c1f021461018857610088565b806304c075691461008d578063253b284c146100c157806335aa2e44146100cb578063517715f0146100fd575b600080fd5b6100a760048036038101906100a291906110ee565b6101a4565b6040516100b895949392919061129e565b60405180910390f35b6100c9610358565b005b6100e560048036038101906100e091906110ee565b6107f5565b6040516100f493929190611339565b60405180910390f35b610117600480360381019061011291906114a5565b61084f565b005b61012161099e565b60405161012e91906114ee565b60405180910390f35b61013f6109a4565b60405161014c91906114ee565b60405180910390f35b61016f600480360381019061016a91906110ee565b610b6b565b60405161017f9493929190611509565b60405180910390f35b6101a2600480360381019061019d919061157a565b610bab565b005b600080600080606060026000018054905086106101f6576040517f08c379a00000000000000000000000000000000000000000000000000000000081526004016101ed90611617565b60405180910390fd5b60006002600001878154811061020f5761020e611637565b5b90600052602060002090600502016040518060a00160405290816000820154815260200160018201548152602001600282015481526020016003820154815260200160048201805480602002602001604051908101604052809291908181526020016000905b8282101561032157838290600052602060002001805461029490611695565b80601f01602080910402602001604051908101604052809291908181526020018280546102c090611695565b801561030d5780601f106102e25761010080835404028352916020019161030d565b820191906000526020600020905b8154815290600101906020018083116102f057829003601f168201915b505050505081526020019060010190610275565b5050505081525050905080600001518160200151826040015183606001518460800151955095509550955095505091939590929450565b60006103626109a4565b9050600080828154811061037957610378611637565b5b9060005260206000209060030201905060006040518060a001604052806002600001805490508152602001428152602001600260000160016002600001805490506103c491906116f5565b815481106103d5576103d4611637565b5b90600052602060002090600502016003015481526020016000801b81526020016002600001600160026000018054905061040f91906116f5565b815481106104205761041f611637565b5b9060005260206000209060050201600401805480602002602001604051908101604052809291908181526020016000905b828210156104fd57838290600052602060002001805461047090611695565b80601f016020809104026020016040519081016040528092919081815260200182805461049c90611695565b80156104e95780601f106104be576101008083540402835291602001916104e9565b820191906000526020600020905b8154815290600101906020018083116104cc57829003601f168201915b505050505081526020019060010190610451565b505050508152509050806000015181602001518260400151836080015160405160200161052d9493929190611729565b60405160208183030381529060405280519060200120816060018181525050610710826040518060600160405290816000820160009054906101000a900473ffffffffffffffffffffffffffffffffffffffff1673ffffffffffffffffffffffffffffffffffffffff1673ffffffffffffffffffffffffffffffffffffffff1681526020016001820154815260200160028201548152505082600260000160016002600001805490506105e091906116f5565b815481106105f1576105f0611637565b5b90600052602060002090600502016040518060a00160405290816000820154815260200160018201548152602001600282015481526020016003820154815260200160048201805480602002602001604051908101604052809291908181526020016000905b8282101561070357838290600052602060002001805461067690611695565b80601f01602080910402602001604051908101604052809291908181526020018280546106a290611695565b80156106ef5780601f106106c4576101008083540402835291602001916106ef565b820191906000526020600020905b8154815290600101906020018083116106d257829003601f168201915b505050505081526020019060010190610657565b5050505081525050610c69565b156107f0576002600001819080600181540180825580915050600190039060005260206000209060050201600090919091909150600082015181600001556020820151816001015560408201518160020155606082015181600301556080820151816004019080519060200190610788929190610e27565b505050600a8260020160008282546107a09190611775565b92505081905550600260000160016002600001805490506107c191906116f5565b815481106107d2576107d1611637565b5b906000526020600020906005020160040160006107ef9190610e87565b5b505050565b6000818154811061080557600080fd5b90600052602060002090600302016000915090508060000160009054906101000a900473ffffffffffffffffffffffffffffffffffffffff16908060010154908060020154905083565b60006108596109a4565b905060008082815481106108705761086f611637565b5b906000526020600020906003020190506000600180808054905061089491906116f5565b815481106108a5576108a4611637565b5b9060005260206000209060050201905080600401849080600181540180825580915050600190039060005260206000200160009091909190915090805190602001906108f2929190610ea8565b50600a8260020160008282546109089190611775565b9250508190555060035481600401805490501061099857600260000181908060018154018082558091505060019003906000526020600020906005020160009091909190915060008201548160000155600182015481600101556002820154816002015560038201548160030155600482018160040190805461098c929190610f2e565b505050610997610cbc565b5b50505050565b60035481565b6000806000905060005b600080549050811015610a0157600081815481106109cf576109ce611637565b5b906000526020600020906003020160010154826109ec9190611775565b915080806109f9906117cb565b9150506109ae565b5060004442604051602001610a17929190611834565b604051602081830303815290604052905060005b600080549050811015610adb578160008281548110610a4d57610a4c611637565b5b906000526020600020906003020160000160009054906101000a900473ffffffffffffffffffffffffffffffffffffffff1660008381548110610a9357610a92611637565b5b906000526020600020906003020160010154604051602001610ab7939291906118ef565b60405160208183030381529060405291508080610ad3906117cb565b915050610a2b565b50600082828051906020012060001c610af49190611957565b90506000805b600080549050811015610b625760008181548110610b1b57610b1a611637565b5b90600052602060002090600302016001015482610b389190611775565b915081831015610b4f578095505050505050610b68565b8080610b5a906117cb565b915050610afa565b50505050505b90565b60018181548110610b7b57600080fd5b90600052602060002090600502016000915090508060000154908060010154908060020154908060030154905084565b600060405180606001604052808473ffffffffffffffffffffffffffffffffffffffff1681526020018381526020016000815250908060018154018082558091505060019003906000526020600020906003020160009091909190915060008201518160000160006101000a81548173ffffffffffffffffffffffffffffffffffffffff021916908373ffffffffffffffffffffffffffffffffffffffff160217905550602082015181600101556040820151816002015550505050565b6000808360000151846020015185604001518660800151604051602001610c939493929190611729565b604051602081830303815290604052805190602001209050836060015181149150509392505050565b60006040518060a0016040528060018054905081526020014281526020016001808080549050610cec91906116f5565b81548110610cfd57610cfc611637565b5b90600052602060002090600502016003015481526020016000801b8152602001600067ffffffffffffffff811115610d3857610d3761137a565b5b604051908082528060200260200182016040528015610d6b57816020015b6060815260200190600190039081610d565790505b508152509050806000015181602001518260400151604051602001610d9293929190611988565b604051602081830303815290604052805190602001208160600181815250506001819080600181540180825580915050600190039060005260206000209060050201600090919091909150600082015181600001556020820151816001015560408201518160020155606082015181600301556080820151816004019080519060200190610e21929190610e27565b50505050565b828054828255906000526020600020908101928215610e76579160200282015b82811115610e75578251829080519060200190610e65929190610ea8565b5091602001919060010190610e47565b5b509050610e839190610f96565b5090565b5080546000825590600052602060002090810190610ea59190610f96565b50565b828054610eb490611695565b90600052602060002090601f016020900481019282610ed65760008555610f1d565b82601f10610eef57805160ff1916838001178555610f1d565b82800160010185558215610f1d579182015b82811115610f1c578251825591602001919060010190610f01565b5b509050610f2a9190610fba565b5090565b828054828255906000526020600020908101928215610f855760005260206000209182015b82811115610f84578282908054610f6990611695565b610f74929190610fd7565b5091600101919060010190610f53565b5b509050610f929190610f96565b5090565b5b80821115610fb65760008181610fad9190611064565b50600101610f97565b5090565b5b80821115610fd3576000816000905550600101610fbb565b5090565b828054610fe390611695565b90600052602060002090601f0160209004810192826110055760008555611053565b82601f106110165780548555611053565b8280016001018555821561105357600052602060002091601f016020900482015b82811115611052578254825591600101919060010190611037565b5b5090506110609190610fba565b5090565b50805461107090611695565b6000825580601f1061108257506110a1565b601f0160209004906000526020600020908101906110a09190610fba565b5b50565b6000604051905090565b600080fd5b600080fd5b6000819050919050565b6110cb816110b8565b81146110d657600080fd5b50565b6000813590506110e8816110c2565b92915050565b600060208284031215611104576111036110ae565b5b6000611112848285016110d9565b91505092915050565b611124816110b8565b82525050565b6000819050919050565b61113d8161112a565b82525050565b600081519050919050565b600082825260208201905092915050565b6000819050602082019050919050565b600081519050919050565b600082825260208201905092915050565b60005b838110156111a957808201518184015260208101905061118e565b838111156111b8576000848401525b50505050565b6000601f19601f8301169050919050565b60006111da8261116f565b6111e4818561117a565b93506111f481856020860161118b565b6111fd816111be565b840191505092915050565b600061121483836111cf565b905092915050565b6000602082019050919050565b600061123482611143565b61123e818561114e565b9350836020820285016112508561115f565b8060005b8581101561128c578484038952815161126d8582611208565b94506112788361121c565b925060208a01995050600181019050611254565b50829750879550505050505092915050565b600060a0820190506112b3600083018861111b565b6112c0602083018761111b565b6112cd6040830186611134565b6112da6060830185611134565b81810360808301526112ec8184611229565b90509695505050505050565b600073ffffffffffffffffffffffffffffffffffffffff82169050919050565b6000611323826112f8565b9050919050565b61133381611318565b82525050565b600060608201905061134e600083018661132a565b61135b602083018561111b565b611368604083018461111b565b949350505050565b600080fd5b600080fd5b7f4e487b7100000000000000000000000000000000000000000000000000000000600052604160045260246000fd5b6113b2826111be565b810181811067ffffffffffffffff821117156113d1576113d061137a565b5b80604052505050565b60006113e46110a4565b90506113f082826113a9565b919050565b600067ffffffffffffffff8211156114105761140f61137a565b5b611419826111be565b9050602081019050919050565b82818337600083830152505050565b6000611448611443846113f5565b6113da565b90508281526020810184848401111561146457611463611375565b5b61146f848285611426565b509392505050565b600082601f83011261148c5761148b611370565b5b813561149c848260208601611435565b91505092915050565b6000602082840312156114bb576114ba6110ae565b5b600082013567ffffffffffffffff8111156114d9576114d86110b3565b5b6114e584828501611477565b91505092915050565b6000602082019050611503600083018461111b565b92915050565b600060808201905061151e600083018761111b565b61152b602083018661111b565b6115386040830185611134565b6115456060830184611134565b95945050505050565b61155781611318565b811461156257600080fd5b50565b6000813590506115748161154e565b92915050565b60008060408385031215611591576115906110ae565b5b600061159f85828601611565565b92505060206115b0858286016110d9565b9150509250929050565b600082825260208201905092915050565b7f496e76616c696420626c6f636b20696e64657800000000000000000000000000600082015250565b60006116016013836115ba565b915061160c826115cb565b602082019050919050565b60006020820190508181036000830152611630816115f4565b9050919050565b7f4e487b7100000000000000000000000000000000000000000000000000000000600052603260045260246000fd5b7f4e487b7100000000000000000000000000000000000000000000000000000000600052602260045260246000fd5b600060028204905060018216806116ad57607f821691505b6020821081036116c0576116bf611666565b5b50919050565b7f4e487b7100000000000000000000000000000000000000000000000000000000600052601160045260246000fd5b6000611700826110b8565b915061170b836110b8565b92508282101561171e5761171d6116c6565b5b828203905092915050565b600060808201905061173e600083018761111b565b61174b602083018661111b565b6117586040830185611134565b818103606083015261176a8184611229565b905095945050505050565b6000611780826110b8565b915061178b836110b8565b9250827fffffffffffffffffffffffffffffffffffffffffffffffffffffffffffffffff038211156117c0576117bf6116c6565b5b828201905092915050565b60006117d6826110b8565b91507fffffffffffffffffffffffffffffffffffffffffffffffffffffffffffffffff8203611808576118076116c6565b5b600182019050919050565b6000819050919050565b61182e611829826110b8565b611813565b82525050565b6000611840828561181d565b602082019150611850828461181d565b6020820191508190509392505050565b600081519050919050565b600081905092915050565b600061188182611860565b61188b818561186b565b935061189b81856020860161118b565b80840191505092915050565b60008160601b9050919050565b60006118bf826118a7565b9050919050565b60006118d1826118b4565b9050919050565b6118e96118e482611318565b6118c6565b82525050565b60006118fb8286611876565b915061190782856118d8565b601482019150611917828461181d565b602082019150819050949350505050565b7f4e487b7100000000000000000000000000000000000000000000000000000000600052601260045260246000fd5b6000611962826110b8565b915061196d836110b8565b92508261197d5761197c611928565b5b828206905092915050565b600060608201905061199d600083018661111b565b6119aa602083018561111b565b6119b76040830184611134565b94935050505056fea264697066735822122070b9cf919d730adc41f7f102ae6fd1058418dd96d297a3d8755880518f29a84f64736f6c634300080d0033",
  "immutableReferences": {},
  "source": "pragma solidity ^0.8.0;\r\n\r\ncontract ProofOfStake {\r\n    struct Validator {\r\n        address validatorAddress;\r\n        uint256 stake;\r\n        uint256 balance;\r\n    }\r\n\r\n    struct Block {\r\n        uint256 id;\r\n        uint256 timestamp;\r\n        bytes32 previousHash;\r\n        bytes32 hash;\r\n        string[] transactions;\r\n    }\r\n\r\n    struct Blockchain {\r\n        Block[] blocks;\r\n    }\r\n\r\n    Validator[] public validators;\r\n    Block[] public blocks;\r\n    Blockchain blockchain;\r\n\r\n    uint256 public transactionsPerBlock = 3; // Number of transactions per block\r\n\r\n    constructor() {\r\n        // Add initial validators\r\n        addValidator(msg.sender, 100);\r\n        addValidator(0xAb8483F64d9C6d1EcF9b849Ae677dD3315835cb2, 50);\r\n        addValidator(0x4B20993Bc481177ec7E8f571ceCaE8A9e22C02db, 75);\r\n        createGenesisBlock();\r\n    }\r\n\r\n    function addValidator(address _address, uint256 _stake) public {\r\n        // Adds a validator\r\n        validators.push(\r\n            Validator({validatorAddress: _address, stake: _stake, balance: 0})\r\n        );\r\n    }\r\n\r\n    function createGenesisBlock() internal {\r\n        Block memory genesisBlock = Block({\r\n            id: 0,\r\n            timestamp: block.timestamp,\r\n            previousHash: 0,\r\n            hash: 0,\r\n            transactions: new string[](0)\r\n        });\r\n        // Add genesis block\r\n        genesisBlock.hash = keccak256(\r\n            abi.encode(\r\n                genesisBlock.id,\r\n                genesisBlock.timestamp,\r\n                genesisBlock.previousHash\r\n            )\r\n        );\r\n        blocks.push(genesisBlock);\r\n        blockchain.blocks.push(genesisBlock);\r\n    }\r\n\r\n    function addTransaction(string memory _data) public {\r\n        // Add a transaction\r\n        uint256 index = selectValidatorIndex();\r\n        Validator storage validator = validators[index];\r\n        Block storage currentBlock = blocks[blocks.length - 1];\r\n        currentBlock.transactions.push(_data);\r\n\r\n        // Process the transaction\r\n        validator.balance += 10;\r\n\r\n        // Create a new block if the maximum number of transactions per block is reached\r\n        if (currentBlock.transactions.length >= transactionsPerBlock) {\r\n            blockchain.blocks.push(currentBlock);\r\n            createNewBlock();\r\n        }\r\n    }\r\n\r\n    function createNewBlock() internal {\r\n        Block memory newBlock = Block(\r\n            blocks.length,\r\n            block.timestamp,\r\n            blocks[blocks.length - 1].hash,\r\n            0,\r\n            new string[](0)\r\n        );\r\n        newBlock.hash = keccak256(\r\n            abi.encode(\r\n                newBlock.id,\r\n                newBlock.timestamp,\r\n                newBlock.previousHash\r\n            )\r\n        );\r\n        blocks.push(newBlock);\r\n    }\r\n\r\n    // Rest of the contract code...\r\n\r\n    function getBlock(uint256 blockIndex) public view returns (\r\n            uint256,\r\n            uint256,\r\n            bytes32,\r\n            bytes32,\r\n            string[] memory\r\n        )\r\n    {\r\n        require(blockIndex < blockchain.blocks.length, \"Invalid block index\");\r\n\r\n        Block memory blockItem = blockchain.blocks[blockIndex];\r\n        return (\r\n            blockItem.id,\r\n            blockItem.timestamp,\r\n            blockItem.previousHash,\r\n            blockItem.hash,\r\n            blockItem.transactions\r\n        );\r\n    }\r\n\r\n    function validateTransactions(Block memory _previousBlock)\r\n        internal\r\n        pure\r\n        returns (bool)\r\n    {\r\n        // Perform transaction validation logic here\r\n        // For demonstration purposes, assume all transactions are valid\r\n        return true;\r\n    }\r\n\r\n    function addBlock() public {\r\n        // Select a validator\r\n        uint256 index = selectValidatorIndex();\r\n        Validator storage validator = validators[index];\r\n\r\n        // Create a new block with transactions\r\n        Block memory newBlock = Block({\r\n            id: blockchain.blocks.length,\r\n            timestamp: block.timestamp,\r\n            previousHash: blockchain.blocks[blockchain.blocks.length - 1].hash,\r\n            hash: 0,\r\n            transactions: blockchain.blocks[blockchain.blocks.length - 1].transactions\r\n        });\r\n        newBlock.hash = keccak256(\r\n            abi.encode(\r\n                newBlock.id,\r\n                newBlock.timestamp,\r\n                newBlock.previousHash,\r\n                newBlock.transactions\r\n            )\r\n        );\r\n\r\n        // Validate block based on validator\r\n        if (validateBlock(validator, newBlock, blockchain.blocks[blockchain.blocks.length - 1])) {\r\n            blockchain.blocks.push(newBlock);\r\n            validator.balance += 10;\r\n            delete blockchain.blocks[blockchain.blocks.length - 1].transactions; // Clear the transactions after including them in the block\r\n        }\r\n    }\r\n\r\n    function selectValidatorIndex() public view returns (uint256) {\r\n        // Selecting validators based on their stake\r\n\r\n        // Get the total stake\r\n        uint256 totalStake = 0;\r\n        for (uint256 i = 0; i < validators.length; i++) {\r\n            totalStake += validators[i].stake;\r\n        }\r\n\r\n        // Get random number based on timestamp and difficulty\r\n        bytes memory packedData = abi.encodePacked(\r\n            block.difficulty,\r\n            block.timestamp\r\n        );\r\n        for (uint256 i = 0; i < validators.length; i++) {\r\n            packedData = abi.encodePacked(\r\n                packedData,\r\n                validators[i].validatorAddress,\r\n                validators[i].stake\r\n            );\r\n        }\r\n\r\n        // Select random index based on total stake mod\r\n        uint256 randomValue = uint256(keccak256(packedData)) % totalStake;\r\n        uint256 cumulativeStake = 0;\r\n        for (uint256 i = 0; i < validators.length; i++) {\r\n            cumulativeStake += validators[i].stake;\r\n            if (randomValue < cumulativeStake) {\r\n                return i;\r\n            }\r\n        }\r\n    }\r\n\r\n    function validateBlock(\r\n        Validator memory validator,\r\n        Block memory newBlock,\r\n        Block memory previousBlock\r\n    ) internal pure returns (bool) {\r\n        bytes32 hash = keccak256(\r\n            abi.encode(\r\n                newBlock.id,\r\n                newBlock.timestamp,\r\n                newBlock.previousHash,\r\n                newBlock.transactions\r\n            )\r\n        );\r\n        return (hash == newBlock.hash);\r\n    }\r\n\r\n    function isBlockValid(Block memory _newBlock, Block memory _previousBlock)\r\n        internal\r\n        pure\r\n        returns (bool)\r\n    {\r\n        if (_newBlock.previousHash != _previousBlock.hash) {\r\n            return false;\r\n        }\r\n        bytes32 hash = keccak256(\r\n            abi.encode(\r\n                _newBlock.id,\r\n                _newBlock.timestamp,\r\n                _newBlock.previousHash,\r\n                _newBlock.transactions\r\n            )\r\n        );\r\n        if (hash != _newBlock.hash) {\r\n            return false;\r\n        }\r\n        return true;\r\n    }\r\n}\r\n",
  "sourcePath": "D:\\sharaf\\Blockchain-Sys\\truffle\\contracts\\pos.sol",
  "compiler": {
    "name": "solc",
    "version": "0.8.13+commit.abaa5c0e.Emscripten.clang"
  },
  "schemaVersion": "3.4.13",
  "updatedAt": "2023-05-13T17:00:59.280Z",
  "devdoc": {
    "kind": "dev",
    "methods": {},
    "version": 1
  },
  "userdoc": {
    "kind": "user",
    "methods": {},
    "version": 1
  }
}